:020000040000FA
:020000000528D1
:06000A00831685010F20A2
:10001000152083120C0885004D204D2008288316DA
:10002000F03086008113831208008C018C0A0E3098
:1000300086000000061E2F288C0A861E2F288C0A98
:10004000061F2F288C0A861F2F288C0A11300C02BD
:1000500003192D280314860D1A288C010800061E8A
:100060002F28861E3128061F3328861F35280C08A6
:100070003B208C000800820700340F340134023426
:1000800003340434053406340734083409340A349C
:100090000B340C340D340E340F349A308D00F330A1
:1000A0008E006400532854288E0B51288D0B4F2846
:0600B0005928640008005D
:00000001FF
