:020000040000FA
:020000000528D1
:06000A0083168601183088
:10001000850087308100831200308B0005100511A8
:10002000652982072A342A34203450345234453426
:10003000533445344E345434413420342A342A3431
:1000400000342234E43450344934433420345434BA
:100050007234613469346E3465347234223400345D
:1000600045346E347434723465346E3461346434BF
:100070006F3472342034703461347234613400343B
:1000800050344934433420343134363463343734D3
:1000900078342F34633438343434003443344F34B8
:1000A0004E345334543441342034443445343A3497
:1000B000003446342E34203441346C3469346D3489
:1000C00065346E3474346134633469346F346E343F
:1000D00000344D346F34643475346C346F342034F0
:1000E0004734723461346234613464346F3472344E
:1000F00000343534203445346E3474347234613411
:10010000643461347334203464346934673469345A
:100110002D340034743461346C34653473340034F9
:100120003434203445346E3474347234613464347D
:1001300061347334203461346E3461342D340034CE
:100140006C346F346734693463346134733400342D
:1001500038342034533461346C3469346434613459
:1001600073342034613420344C3445344434733493
:1001700000347934203461342034443469347334A5
:1001800070346C346134793400342A342A342034A5
:100190005034523455344534423441344C344F3465
:1001A00020342A342A34003482074D3469346334CD
:1001B00072346F34533479347334743465346D3439
:1001C00073342034203420340034820745346E34B4
:1001D000673469346E3465346534723469346E342E
:1001E0006734003485148316FF30860083120515AA
:1001F0000000861BF92805118316860183128510DD
:100200000800051500000511080005108600F22001
:100210000514012905108600F220012938300A2131
:10022000182138300A21182138300A2118210800F5
:100230001A308D008C018C0B1B298D0B1B2908009B
:100240000B11D83081000B1D23298F0B20290800AA
:1002500064308F0020210800C8308F002021063034
:10026000900008300A2125308F0020210C300A210F
:1002700025308F002021900B312908008E010E08B7
:10028000D42000380319080005218E0A10308F0091
:10029000202118300A213F298E010E08E520003860
:1002A0000319080005218E0A10308F0020214D29E6
:1002B0008E0111080E0711200038031908000521CE
:1002C0008E0A10308F00202159290E2101300A2179
:1002D00006300A210C300A218F300A213E21D43009
:1002E0000A214C212C2101300A21282181300A21A8
:1002F000910158212821C1300A210F309100582145
:10030000282101300A2128211E3091005821C030B7
:100310000A212E3091005821282101300A2128215C
:100320003C30910083300A2158212C2101300A21D0
:100330002821473091005821C0300A212821573008
:1003400091005821282101300A212821673091008D
:100350005821C0300A2178309100582128210130DD
:100360000A2128217E3091005821C0300A218E3088
:1003700091005821282101300A212821963091002E
:100380005821C0300A21A73091005821282101307E
:100390000A21282181300A21B330910058212C21D3
:0403A0002821662981
:00000001FF
