:020000040000FA
:020000002828AE
:0800080028288C000130810161
:100010008316810083120B110B1D0C288C0B0B28EF
:1000200008008F008101851183168511073081003A
:1000300083120B1185152320851123200B1D1A28EF
:100040008F0B192808000E089000900B2528080037
:10005000831617308500860183128511831685115A
:100060008312860105183B2864300520051C3628BC
:100070006430052045208518442864300520851CFF
:100080003F28643005205620322817308E00033078
:10009000112078308E00033011201A308E0003308A
:1000A00011203C308E00033011200800BB308E0040
:1000B0000230112087308E0005301120A2308E00D2
:0E00C0000330112098308E000330112008000C
:00000001FF
