:020000040000FA
:020000005E2878
:06000A0083160F30860092
:1000100081138312043092007F3091001108860012
:100020000000060893001102031D1C280314910C04
:10003000920B0E2880302C286430940095016400C7
:10004000950B2028940B1E28110886000000060836
:100050001302031D0E2813089100080012088207DE
:100060007D34EE34ED34EB34DE34DD34DB34BE3459
:10007000BD34BB347E347B347734B734D734E73483
:100080001108930092012E20130203194928920AA5
:1000900043281208910008000F3982073F340634C4
:1000A0005B344F3466346D347D3407347F346734C9
:1000B00077347C3439345E34793471348316850175
:1000C00083128515052080301102031962286F20E4
:1000D00040201108013E85117920851562281108FC
:1000E0008C00052080301102031D71280C0891003E
:1000F00008008E0090018F01900B7C288F0B7C28CC
:060100008E0B7C280800B4
:00000001FF
