:020000040000FA
:020000008F2847
:0800080096000D308100030891
:100010009800201D1028051C0F2805101028051415
:10002000990B1628043081079F309900970B4A28B6
:1000300011309700061A3028861A3928061B4228E4
:10004000861B23283028A0182E28150E2018210ED4
:100050000F3903192E28103886004A2886014A28AD
:10006000A0182E281508201821080F3920388600DE
:100070004A28A0182E28140E2018220E0F394038B6
:1000800086004A28A0182E281408201822080F39A4
:1000900080388600910B6828C8309100920B682840
:1000A00014309200930B68283C309300940A140893
:1000B0000310593C031C7B28031014080F39093C1A
:1000C0000318662806309407F0309405A0196D20B7
:1000D0001808830016080B1109002208A01A24082A
:1000E00014020319742808002108A01A2308150215
:1000F0000319201608009401950A03101508233CE3
:10010000031C8D28031015080F39093C03186628B5
:1001100006309507F030950566289501662805108C
:10012000A101A201A0019F30990011309700C830B1
:100130009100143092003C3093000301940086003B
:1001400095000B118B168B178316030186001E304A
:1001500085008112831281011929051E1329851D2D
:100160004E29051DA921851C1129A011201220113D
:100170000510A012201AC228AD28FF308C008C0B6D
:10018000BF28080008308E0006210430A006051D97
:10019000D2288518AD288E0BC428062106210621F9
:1001A0000621C2282012201105102108A01A2308B8
:1001B000A3002208A01A2408053EA4000310593CFD
:1001C000031CF128031024080F39093C031CEE28F6
:1001D000BD20051DE928A016BD20AD280630A407C6
:1001E000E828063024070F39A400230AA3000310CF
:1001F000233C031C0429031023080F39093C03186E
:10020000E8280630A307E828A301E8288C011F305E
:100210008D008C0B0E298D0B09290800851808000C
:100220000929A015BA289421051AAD28A521051E73
:1002300017299821051E2229851D3A29051D912976
:10024000A5211929BD20051A19290310940A14089B
:100250000310593C031C3729031014080F39093CBB
:100260000318382906309407F03094053829940192
:1002700096212229BD2085191929950A15080310F0
:10028000233C031C8E29031015080F39093C031861
:100290008F2906309507F03095058F29942185190F
:1002A000AD28A5212014851D53299821051E5E29FE
:1002B000851D7429051D8729A5215529A012BD205A
:1002C000051A5529A20A22080310593C031C71295A
:1002D000031022080F39093C031872290630A207BF
:1002E0007229A20196216029A012BD2085195529E5
:1002F000A10A21080310233C031C8B2903102108A9
:100300000F39093C03188C290630A1078C292010CD
:10031000051D8829AD28A1019621762995019621F0
:100320003A290519AD2891290630992902309929D1
:1003300001308E00FF308C00FF308D008D0B9E2928
:100340008C0B9C298E0B9A290800A0149821A010D0
:100350000800A5212014051DAB2994212010A521FA
:02036000080093
:00000001FF
