:020000040000FA
:020000000528D1
:06000A00831600308600A1
:1000100083120A308D008D030D08003A031922283F
:1000200001308C000C088600D620D620D620D620A1
:10003000D620D620D620D620D620D6208C0D8C1DBA
:1000400012280B2814308D008D030D08003A031977
:100050003A2801308C000C088600D620D620D62005
:10006000D620D620D620D620D620D6208C0D8C1D8A
:100070002B2824281E308D008D030D08003A03190B
:10008000512801308C000C088600D620D620D620BE
:10009000D620D620D620D620D6208C0D8C1D4328E5
:1000A0003C2828308D008D030D08003A031967287D
:1000B00001308C000C088600D620D620D620D62011
:1000C000D620D620D6208C0D8C1D5A2853283230AD
:1000D0008D008D030D08003A03197C2801308C0037
:1000E0000C088600D620D620D620D620D620D620B2
:1000F0008C0D8C1D702869283C308D008D030D08F7
:10010000003A0319902801308C000C088600D62094
:10011000D620D620D620D6208C0D8C1D85287E2872
:1001200046308D008D030D08003A0319A3280130D5
:100130008C000C088600D620D620D620D6208C0D28
:100140008C1D9928922850308D008D030D08003A9F
:100150000319B52801308C000C088600D620D62063
:10016000D6208C0D8C1DAC28A5285A308D008D030F
:100170000D08003A0319C62801308C000C088600CF
:10018000D620D6208C0D8C1DBE28B72864308D005B
:100190008D030D08003A0319092801308C000C0862
:1001A0008600D6208C0D8C1DCF28C82808308E00E4
:1001B000F9308F00640064008F0BDA288E0BD8288A
:0601C000E12864000800C4
:00000001FF
