:020000040000FA
:020000000528D1
:08000800732803018500860046
:100010008316860103308500023081008312860139
:10002000051C1528851C1E28102813308600EF306B
:100030009000003092008030910027282330860005
:10004000FF30900001309200423091002728482074
:100050009300931B0F28910A48209400131B382803
:1000600013083F394C20950081000B118B168B171C
:10007000140897001008980000000000980B3C2816
:10008000970B3A288F228B12910A0319920A27287C
:1000900012088A00110882008A01820711341F3475
:1000A0002B34373442344D34573461346A3472342B
:1000B0007A34813489348F3496349C34A134A73413
:1000C000AC34B034B534B934BD34C134C434C834BC
:1000D000CB34CE34D134D334D634D834DA34DC34DF
:1000E000DE34E034E23496001508810006080F3A49
:0800F00086000B11160809003F
:10010000173478341A343C3417343C34123478348D
:1001100017343C3412343C340E34783412343C34CA
:100120000E343C340B34F03406343C340B343C3461
:100130000E343C340B343C340D343C340B343C34FE
:100140000D343C340B343C340A343C340D343C34F0
:1001500010343C340D343C340E3478340B34783461
:10016000173478341A343C3417343C34123478342D
:1001700017343C3412343C340E34783412343C346A
:100180000E343C340B34F0340E3478340E3478347E
:100190000E3478340E347834173478340E3478349E
:1001A00010343C340E343C340D347834123478340A
:1001B0001234783412347834123478341A3478346F
:1001C0001234783412343C3414343C3411347834DE
:1001D0000D343C3412343C3415343C3412343C3449
:1001E00014343C3412343C3414343C3412343C3433
:1001F00011343C3414343C3417343C3414343C341F
:1002000015343C3414343C3415343C3414343C340C
:1002100012343C3415343C3412343C3411343C3404
:1002200012343C3417343C3412343C3411343934F5
:1002300012343C3419343E3412343C3411343C34DE
:10024000123439341A343E3412343C3411343C34D0
:1002500012343C341A343C3419343C3417343C34B2
:1002600019343C3415343C3414343C3412343C34AA
:100270001534783414343C3412343C341234E034C1
:10028000FF3400341334433440344D340E341834C6
:1002900040341D3413343E34403448340E341B345F
:1002A0004034183413341534403419340E341534B2
:1002B0004034153413341734403418341734173499
:1002C00040341B341A343B344034833418344734BC
:1002D00040344A341534153440341D3418343C3419
:1002E00040345234153416344034163418341C3427
:1002F000403412341534163440341834123418345F
:100300004034143415341D34403418340E34393428
:10031000403482341334273440343E3413346B3445
:1003200040341E341734313415342134403407340A
:10033000133416344034183413341634153413344B
:1003400013341234123410344034223412346834EA
:1003500040341F3415342C3418341B3440341434D6
:10036000123413344034193415342F341334133405
:10037000403422341334783440341D3417342A3452
:10038000403403341534223440340C3413341634DE
:1003900040341A34133419341534123413341134EC
:1003A0001234123440341F3412345B344034273456
:1003B00015342D3418341A344034133412341434B0
:1003C000403419341334143440341934133413348E
:1003D00040341A3413341C341234153410341E349F
:1003E00012341234133418344034163413341034A5
:1003F000403423341734173415340D3413341F3478
:1004000015340F341734183440341A341734103478
:10041000403420341A34193418340F3417341F344C
:10042000183410341A34593440347B340E34BA340E
:1004300010347C34403448340E3419340C341634BF
:10044000403431340C34143440344C340C341734CC
:100450000B341234403439340B34133440344334C5
:100460000B34173409341334403437340934163418
:100470004034413407342E340634333404342D34BC
:1004800040340134063435344034023407341634F1
:10049000403450340934103440344C340B340E346E
:1004A0004034B4340E34BA341034823440343934E5
:1004B0000E342D340C34163440341E340C341034C5
:1004C00040341F340C34103440341C340C342C347D
:1004D0000B34133440341E340B340D344034233485
:1004E0000B34103440341E340B342F34093413349D
:1004F00040341B340934133440341E34093410346E
:100500004034233407342B3406342F34043431344C
:1005100006343534403405340734B434FF345D30A8
:10052000990047309A006400952A9A0B932A990BF8
:0A053000912A9A2A9B2A6400080011
:00000001FF
