:020000040000FA
:02000000AD2829
:06000A008207303431349E
:100010003234333434343534363437343834393494
:1000200041344234433444344534463483168601E3
:100030008501831205100511080085148316FF3011
:100040008600831205150000861B242805118316DF
:1000500086018312851008000515000005110800AF
:10006000051086001D2005142C20080005108600B0
:100070001D202C200800383036204B203830362008
:100080004B20383036204B20080001303620080045
:100090000C30362008006400103091009001900B65
:1000A0004F28910B4F28080083160F3086008113CC
:1000B0008312043093007F30920012088600000003
:1000C000060894001202031D6B280314920C930B74
:1000D0005D2880307B286430950096016400960B83
:1000E0006F28950B6D281208860000000608140280
:1000F000031D5D28140892000800130882077D3450
:10010000EE34ED34EB34DE34DD34DB34BE34BD3478
:10011000BB347E347B347734B734D734E7341208B9
:10012000940093017D20140203199828930A9228C1
:100130001308920008000F3982073F3406345B34FD
:100140004F3466346D347D3407347F34673477340C
:100150007C3439345E347934713416203B204820A5
:1001600083168501873081008312851554208030E5
:1001700012020319B628D820851119308C00CC2022
:1001800085158F20052092001620452048208130BB
:10019000362012083020B6280B11D83081000B1DF4
:1001A000CF288C0BCC28080064308C00CC200800B1
:1001B00012088C00542080301202031DDA280C082B
:1001C000920008008D008F018E018F0BE5288E0BA9
:0801D000E5288D0BE52808006D
:00000001FF
