:020000040000FA
:020000004F2986
:06000A008200283441349D
:100010002934203441347034653472347434753486
:100020007234613400342834433429342034433466
:1000300061346D34623469346F34203443346C3449
:10004000613476346534003443346C34613476344E
:10005000653420343F342034003428344334293488
:100060002034433461346E34633465346C34613429
:10007000723400344E34753465347634613420344F
:1000800043346C3461347634653420340034433482
:100090006F346E346634693472346D346134723462
:1000A000203400345034753465346434653420347D
:1000B0005034613473346134723400344134433425
:1000C0004334453453344F342034443445344E346F
:1000D00045344734413444344F3400348316F030CF
:1000E00086008113831290018E010E30860000007D
:1000F000061E8E288E0A861E8E288E0A061F8E28C1
:100100008E0A861F8E288E0A10300E0203198B2845
:100110000314860D782880308E000800901B9428E8
:1001200090170E088F009D2890130E080F02031DD4
:100130008B280E08A5208E008D2805308C008D019F
:100140008D0BA0288C0B9F2874288207013404345F
:1001500007340A34023405340834003403340634D6
:1001600009340B340F340E340D340C3483168601ED
:100170000030850087308100831200308B0005102D
:100180000511080085148316FF30860083120515BB
:100190000000861BC928051183168601831285106D
:1001A0000800051500000511080005108600C22092
:1001B0000514D12805108600C220D12803308C00F8
:1001C00064003830DA20D63081000B1DE5280B1191
:1001D0008C0BE02808000130DA2008000C30DA200F
:1001E00008000E089B0085110130FF2085156E2048
:1001F00080300E02031DF7281B088E0008009D00AA
:100200009F0B00299E0B00299D0B002908009B00D5
:100210001B0805209C009C08031D0F290800D52001
:100220009B0A082904309A00113084006E20803027
:100230000E0203191629B6202D30D520F1200C30DE
:100240000E020319242926299B1408009B100E086E
:100250008000840A9A0B162908001B1004309A00AB
:100260001130840089013E2108080F390002031D66
:100270001B14890A840A9A0B332908008316081470
:10028000831208008316081555308900AA308900AA
:1002900088140811081E4A29081283120800B62083
:1002A000DE20EE201830850089013E21FF30080253
:1002B000031D6229880104309B00880A4221890AB3
:1002C0009B0B5D29EB2006300721C030DA2013306C
:1002D00007216E2080300E0203196929F1200A30AF
:1002E0000E020319C0290C300E02031D6929B62025
:1002F000EB202D300721C030DA20243007211221D5
:100300009B1862292D211B186229B620EB202D3065
:100310000721C030DA203A30072112219B186229C8
:10032000B620EB202D300721C030DA2047300721DE
:1003300011089500120896001308970014089800F9
:1003400012219B18622911081502031D6229120847
:100350001602031D622913081702031D62291408DF
:100360001802031D622904309A00113084008901AB
:10037000000888004221840A890A9A0BB829622958
:1003800003309900B620EB202D300721C030DA2051
:100390002430072112219B1862292D211B18DC29EA
:1003A000B620EB2052300721051285110A30FF20BC
:1003B0000516851599016229990BC229B620EB20F3
:0A03C0005E3007211030FF20622993
:00000001FF
