:020000040000FA
:020000000528D1
:06000A0083160F30850093
:100010000030860083128501860105080F398C00A7
:10002000003A031950200C08013A031990200C08DB
:10003000023A0319F6200C08033A03195D210C0853
:10004000043A031990210C08053A0319BE210C0843
:10005000063A0319DE210C08073A031961220C083D
:10006000083A031964220C08093A03196E220C0895
:100070000A3A03197C220C080B3A0319A4220C0833
:100080000C3A0319D8220C080D3A0319DB220C088C
:100090000E3A031901230C080F3A03191F230D28E8
:1000A000860186172F2306172F2386162F23061661
:1000B0002F2386152F2306152F2386142F2306148E
:1000C0002F2386132F2306132F2386122F23061286
:1000D0002F2386112F2306112F2386102F2386010D
:1000E0002F2306142F2386142F2306152F2386155E
:1000F0002F2306162F2386162F2306172F23861746
:100100002F2306102F2386102F2306112F2386114D
:100110002F2306122F2386122F2306132F230800C6
:10012000860186172F23861306172F23061386169C
:100130002F23861206162F23061286152F238611CB
:1001400006152F23061186142F23861006142F233D
:1001500086172F23861306172F23061386162F23A1
:10016000861206162F23061286152F2386110615D2
:100170002F23061186142F2386172F238613061785
:100180002F23061386162F23861206162F230612F8
:1001900086152F23861106152F2386172F238613E6
:1001A00006172F23061386162F23861206162F23D3
:1001B000061286152F2386172F23861306172F2343
:1001C000061386162F23861206162F2386172F2333
:1001D000861306172F23061386162F2386172F2321
:1001E000861306172F2386172F23080086012F2337
:1001F00006142F23061086142F23861006152F238E
:10020000061186152F23861106162F230612861631
:100210002F23861206172F23061386172F23061463
:100220002F23061086142F23861006152F23061160
:1002300086152F23861106162F23061286162F23C6
:10024000861206172F2306142F23061086142F2339
:10025000861006152F23061186152F2386110616E4
:100260002F23061286162F2306142F23061086141A
:100270002F23861006152F23061186152F2386118E
:1002800006162F2306142F23061086142F238610FC
:1002900006152F23061186152F2306142F2306106B
:1002A00086142F23861006152F2306142F230610DD
:1002B00086142F2306142F230800860186170614A0
:1002C0002F23061786142F23861606152F230616AE
:1002D00086152F23861306102F23061386102F232F
:1002E000861206112F23061286112F232F2386151F
:1002F00006162F23861606152F23061786142F237E
:10030000861706142F23861106122F238612061134
:100310002F23061386102F23861306102F23080081
:10032000860101308F0086000F0803148F002F23F1
:100330000F088600060D86008F002F230F08860108
:100340008F002F230F0886008F002F230F088601B0
:100350008F002F230F088600861F94292F238613D2
:100360002F2306132F2386122F2306122F238611E5
:100370002F2306112F2386102F230800860101301A
:10038000860003108F002F230F088600060D8600BD
:100390008F002F230F0886018F002F230F08860060
:1003A0008F002F230F0886018F002F230F08860050
:1003B000861FC1298F002F230F08080086012F23D5
:1003C00006142F23061086142F23861006152F23BC
:1003D000061186152F23861106162F230612861660
:1003E0002F23861206172F23061386172F2306178F
:1003F0002F23061386162F23861206162F23061286
:1004000086152F23861106152F23061186142F23F8
:10041000861006142F2386142F23861006152F23EB
:10042000061186152F23861106162F23061286160F
:100430002F23861206172F2386162F2386120616C1
:100440002F23061286152F23861106152F2306113A
:1004500086142F2306152F23061186152F238611A8
:1004600006162F23061286162F2306162F23061292
:1004700086152F23861106152F2386152F23861107
:1004800006162F2386152F2306112F2306152F233B
:1004900086102F2386142F2306102F2306142F23B4
:1004A00006102F2386102F2306112F2386112F23AA
:1004B00006122F2386122F2306132F2386132F2392
:1004C0000800F620902008008601EE308600031414
:1004D0002F23860D861B682A2F2308008601FE30F5
:1004E000860003142F23860D861B722A2F23860C69
:1004F0000618762A2F230800860106142F23861457
:100500002F2306152F2386152F2306162F23861635
:100510002F2306172F23861703102F23860C061868
:100520008D2A2F2386102F2306112F2386112F2388
:1005300006122F2386122F23061303102F23860C57
:10054000061C9E2A2F230800860106142F238614DA
:100550002F2306152F2386152F2306162F238616E5
:100560002F2306172F2386172F2386012F23FF30D3
:1005700086002F2386012F23FF3086002F2386013C
:100580002F23FF3086002F2386012F23FF30860084
:100590002F2386132F2306132F2386122F230612B1
:1005A0002F2386112F2306112F2386102F230800B7
:1005B0008601712008008601861706142F23860104
:1005C000061786142F238601861606152F2386010B
:1005D000061686152F23861606152F230617861452
:1005E0002F23861706142F23861106122F23861217
:1005F00006112F23061386102F23861306102F2390
:10060000080086018030860003108F002F230F081A
:100610008600060C86008F002F230F0886018F00AE
:100620002F230F0886008F002F230F0886018F00CD
:100630002F230F088600061C042B2F230800860199
:10064000861703102F23860C061C222B8601061406
:1006500003102F23860D861F292B2F230800C5305A
:100660008D00FD308E00640064008E0B332B8D0BEB
:08067000312B3A2B03010800B5
:00000001FF
