:020000040000FA
:1000000065288D0100008D0B02288D000D0B012845
:1000100000348E01F0308F0090018E0A03198F0A90
:100020000319900A013010020318A028051A0D28A0
:100030005020031C0D280730910092013520920CAE
:10004000910B1E28920C9213053091003520910BD4
:1000500026288E018F01051E6E288E0A03198F0A2D
:1000600004300F02031C2B2800348E018E0A6430EA
:100070000E0203186E28051A362819300E02031CCA
:100080006E288E018E0AE1300E0203186E28051EBE
:10009000422832300E02031C6E287D300E020034DE
:1000A0008D018D0A051683162030850030308500BD
:1000B0008312FA300D0203186228051E51288A3077
:1000C0000D02003403010D070034850186019401FF
:1000D000831630308500003086008312092093019A
:1000E0001208153A0319131412082A3A0319931423
:1000F0001208103A031913151208113A031993152F
:1001000012081A3A0319131612081B3A0319931608
:1001100012081C3A031913171208183A03199317F7
:100120000608130503199A28141C6E28130986055E
:1001300094016E28141C6E281308860494016E28FE
:0401400014146E28FD
:02400E00F13F80
:00000001FF
