:020000040000FA
:020000000528D1
:06000A008316850186014A
:1000100083120130900002309100033092000430CE
:1000200093000530940006309500073096000830A4
:100030009700093098000A3099000B309A000C3074
:100040009B009E011E14B4309C00850108308F0077
:1000500055208400003086000F08850000084720E6
:10006000860038200F18262803108F0C840A2A28AF
:1000700003308D006E308E00000000000000000094
:10008000000000008E0B3C288D0B3A2800348207BC
:100090000000803480348034803406345C347C3416
:1000A0005C3480348034803480349C0F5B28B430DE
:1000B0009C0003109E0D1E1810349E1811341E193A
:1000C00012349E1913341E1A14349E1A15341E1B32
:0C00D00016349E1B17349E011E14552888
:00000001FF
