:020000040000FA
:020000000528D1
:06000A0083168601183088
:10001000850087308100831200308B0005100511A8
:10002000622982072A342A34203450345234453429
:10003000533445344E345434413420342A342A3431
:1000400000342234223452345534543449344E343A
:1000500041345334203420344C3443344434223437
:100060002234003443344F344E342034E4344334A7
:100070004F344E34543452344F344C34413444347D
:100080004F34523400345034493443342034313402
:100090003634463438343434413420340034443433
:1000A000453420344D344934433452344F3443348E
:1000B00048344934503400344D346F34643475342A
:1000C0006C346F3420344C344334443420340034A2
:1000D00054345334203431343634323430344134AF
:1000E0002D34313437345F343234203400344634E4
:1000F000553445344E345434453453343A34003452
:100100007434753474346F347234693461346C34DB
:100110006534733420340034623461346A346134B9
:1001200064346F34733420346434653420340034E0
:1001300052344F3442344F345434493458340034F8
:10014000E43443344F344E34543452344F344C340A
:1001500020340034793420344F34543452344F3402
:1001600053342E342E342E3400342A342A3420349E
:100170005434483445342034203445344E344434E7
:1001800020342A342A3400342A342A342A342A34B3
:100190002A342A342A342A342A342A342A342A346F
:1001A0002A342A342A342A34003482074C346F34F7
:1001B00062346F342034563465346C346F347A349E
:1001C0002034203420342034203400348207433457
:1001D0006F346D34703461346E3479340034851486
:1001E0008316FF308600831205150000861BF62853
:1001F000051183168601831285100800051500007D
:100200000511080005108600EF200514FE280510D2
:100210008600EF20FE2838300721152138300721CD
:10022000152138300721152108001A308D008C0166
:100230008C0B18298D0B182908000B11D830810060
:100240000B1D20298F0B1D29080064308F001D21F4
:100250000800C8308F001D210630900008300721AB
:1002600025308F001D210C30072125308F001D21E6
:10027000900B2E2908008E010E08D5200038031996
:10028000080002218E0A10308F001D21183007212E
:100290003C298E010E08E6200038031908000221CF
:1002A0008E0A10308F001D214A298E0111080E0779
:1002B000112000380319080002218E0A10308F0027
:1002C0001D2156290B2101300721063007210C3052
:1002D00007218F3007213B21D830072149212921CF
:1002E0000130072125218130072191015521252148
:1002F000C03007210F309100552125210130072101
:100300002521203091005521C03007213130910046
:10031000552125210130072125213D3091008230D2
:100320000721552129210130072125214A3091003B
:100330005521C03007212521563091005521252116
:10034000013007212521653091005521C03007215A
:100350006E309100552125210130072125217A3069
:1003600091005521C030072186309100552125216B
:100370000130072125218E3091005521C030072101
:100380009830910055212521013007212521813008
:100390000721A330910055212521C0300721B2301B
:0C03A000910055212521292125216329E8
:00000001FF
