:020000040000FA
:100000008E018F019001910192019301940185016C
:1000100086018316850180308600043081008312BA
:100020002B2065200B1D12288B0192208C0B12288F
:1000300010280F398207403479342434303419348D
:10004000123402347834003410347F347F347F34F7
:100050007F347F347F347A308C008E0A0E08093C5E
:10006000031808007B308C008E018F0A0F08053CB6
:100070000318080079308C008F01900A1008093CA1
:10008000031808007B308C009001910A1108053C90
:10009000031808007C308C0091011308013C031800
:1000A0005B28920A1208033C031808007D308C007C
:1000B000920193010800920A1208093C03180800F3
:1000C0007D308C009201930A08009501940A14086F
:1000D0000E3C031C94011408013A03197D28033ACD
:1000E00003198028013A03198328073A031986283F
:1000F000303086001F3085000800951513088828C9
:100100001515120888289514110888281514100848
:10011000970019208D001F3985000D0C303915040A
:1001200086000800861B0800950803190800970A36
:100130001708093C031C970117088820B820861F60
:100140009F28B820861F9F2814309600861F972866
:10015000B820960BA628170894018F018E019519D7
:100160009300151992009518910015189000102809
:100170000C308C000B1DBA288B018C0BBA280800A0
:02400E00F93F78
:00000001FF
