:020000040000FA
:100000008C01622005100511582001304F20063068
:100010004F200C304F2080304F200C081A20003821
:100020000319152853208C0A0D2800002C201830A5
:100030004F201528820748344F344C3441345F3404
:100040004C344F3442344F345F34463445345234A8
:100050004F345A343A3400340E308F004830900018
:10006000F73091006400910B3228900B30288F0BF1
:100070002E283A2864000800051500000511080024
:1000800085148316FF308600831205150000861B39
:100090004728051183168601831285100800051074
:1000A000860040203C2805108600402005143C288E
:1000B00038304F20692038304F20692038304F20A9
:1000C0006920080083168601183085008312051008
:1000D00005111A308E008D018D0B6C288E0B6C284B
:0200E000080016
:00000001FF
