:020000040000FA
:020000000528D1
:080008001A2883168501860108
:10001000083081008312A0308B008C010C0803395A
:1000200015208D006A208C0A0E28820703340C34B8
:1000300015340C348E00030E8F008312A63081001D
:10004000900B2C280618282806140D0890002C2840
:1000500006100D08C83C90000F0E83008E0E0E0E89
:100060000B100B1109000000000000000000000050
:10007000000008000000A430462800004030462858
:100080001F30462800000E30462805309100910BA5
:1000900047280800C8305928643059283230592878
:1000A000143059280A305928053059280230592867
:1000B00001309200F93091000000910B5C28920B06
:1000C0005A280800C8306D2864306D2832306D28F9
:1000D00014306D280A306D2805309300643092008A
:1000E000F93091000000910B7228920B7028930B4D
:0400F0006E2808006E
:02400E00F13F80
:00000001FF
