:020000040000FA
:020000000528D1
:08000800942883167030860075
:10001000F0308500A0308B000330810083128C010A
:100020008D018E018F01900191019C019D01A20122
:100030009E019F01A00197019601A301003081005C
:1000400095019401930192019B0199019A0101305C
:100050009800A1017B208C0A0C080A3C031933206C
:100060000C0896007B208C0196018D0A0D08063C39
:1000700003193D200D0897007B208D0197018E0A02
:100080000E080A3C03194B200E08920010081A02B1
:1000900003193A217B208E0192018F0A0F08063C3A
:1000A000031959200F08930010081A0203193A2166
:1000B0007B208F019301900A10080A3C03197120DC
:1000C000100894001008043C031D7B209C0A1C08A7
:1000D000033C031D7B2094019501900191019C013B
:1000E0007B2090019401910A11080A3C03199101A7
:1000F000110895007B2012088510051185118600D6
:100100000514130805108600851414088510860050
:1001100005151508051186008515061A9F281F0864
:10012000053C0319A2287B288B170B110030810096
:100130009D0A1D08F33C031D7B209D012B208B1382
:10014000061AAB208B170B1100308100A2019E0113
:100150009F01A0017B2805309F00861AD5285921D0
:10016000861AD5289E0A861EB3285921861EB328D2
:100170000530A2001E08063C0319D2201E08013CCF
:100180000319DA281E08023C0319E2281E08033C62
:100190000319EA281E08043C03192A291E08053CF5
:1001A0000319322901309E0008002208053C031D76
:1001B0007B28B828061B7B285921061B7B28061F95
:1001C000DF285B28061B7B285921061B7B28061F7E
:1001D000E7283D28180885100511851186000514AB
:1001E00019080510860085141A0885108600051563
:1001F0001B08051186008515061A9F281F08053C57
:100200000319A228EA28980A18080A3C03190921A8
:10021000EA209801990A1908063C03191021EA20DE
:1002200099019A0A1A080A3C031923211A08043C66
:10023000031DEA20A10A2108033C031DEA209A01BC
:100240009B01A101EA209A019B0A1B080A3C0319A1
:100250009B01EA20061BEA285921061BEA28061FF3
:100260002F291129061BEA285921061BEA28061FF7
:100270003729032911081B02031D08000F08190262
:10028000031D08000E081802031D08008B138617B3
:10029000952186218613662186179521862186134E
:1002A00066218617862176210B118B17003081007D
:1002B0003D280830A400F930A50064006400A50BB7
:1002C0005D29A40B5B296429640008000E30A4009A
:1002D0004830A500F730A6006400A60B6C29A50BDA
:1002E0006A29A40B6829742964000800A730A400B7
:1002F0002930A5004830A6006400A60B7C29A50B78
:100300007A29A40B7829842964000800A530A40068
:100310002930A5009330A60064006400A60B8C2948
:10032000A50B8A29A40B882908004730A400FE30B9
:10033000A500DD30A60064006400A60B9B29A50B78
:0E0340009929A40B9729A429A5296400080077
:00000001FF
