:020000040000FA
:1000000010212130942125309C008521E9309D006C
:100010008521A3204021193094211A08892119082B
:100020008921180889211708892116088921630068
:1000300082074434653463342E3420343D34203414
:1000400000344834653478342E3420343D34203440
:100050000034950008309400950D3130031C303089
:100060005121940B2C2808008D098C0901308C0734
:1000700003188D0A0C08080034200C088E0703189A
:100080008D0A0D088F070800910190010830940037
:100090000C088E0C03189107910C900C940B4928B6
:1000A00008009101900193019201103094008F0C8F
:1000B0008E0C031C61280C0892070318930A0D0884
:1000C0009307930C920C910C900C940B57280800FA
:1000D00090019201083094008C0D920D0E081202CE
:1000E00003189200900D940B6C28120808009101DF
:1000F00090019201103094008C0D8D0D920D0E0820
:10010000120203189200900D910D940B7C28120896
:10011000080091011A0890001908952018089520E8
:1001200017089520160895200800950010088C00E7
:1001300011088D008F010A308E005120150890079C
:100140000318910A08001C088D001D088C0005305A
:100150009B00163084000A308E0077208000840ACD
:1001600011088D0010088C009B0BAB2808009E0125
:1001700004309B001A30840000081E18C12803199F
:10018000C32889211E1484039B0BBC2816088921CF
:10019000080000000000000000000000000008004F
:1001A0000000A430DC2800004030DC281F30DC28B0
:1001B00000000E30DC2805309F009F0BDD28080072
:1001C000C830EF286430EF283230EF281430EF28A1
:1001D0000A30EF280530EF280230EF280130A00068
:1001E000F9309F0000009F0BF228A00BF0280800B8
:1001F000C83003296430032932300329143003291D
:100200000A3003290530A1006430A000F9309F00B6
:1002100000009F0B0829A00B0629A10B0429080048
:100220008316051005118510831285100511051020
:10023000E62030302821EA2030302821D320303009
:100240002821203028214E214C214A213C21080020
:10025000F039A20006080F39A20483160608A4008C
:100260000F308605831222088600051505118316B6
:10027000240886008312080006304F2980304F2959
:10028000C0304F2980384F29C0384F2908304F29B6
:100290000E304F290C304F2901304F2928300510DE
:1002A000532905145B21A3002821230E2821051CB6
:1002B000EC20D8200800A200F13C031D6229EE309A
:1002C000A2006F292208D13C031D6929EE30A2004B
:1002D0006F292208BA3C031D6F29DF30A2002208D3
:1002E000080010307829013078290230782903304D
:1002F000A50020305121A50B79290800A600F0396E
:10030000031D8629203051218829A600260E892127
:1003100026080F39A500093C031C91292508303E09
:1003200093292508373E5129A7001830A702A703B3
:1003300027081820A800A8080319A1295121A70AF5
:1003400098290800A7001830A702A703A9014C218B
:1003500010302902031DB129E020E0200F30A70250
:10036000A62927081820A800A8080319BB2951218D
:08037000A90AA70AA829080048
:02400E00F13F80
:00000001FF
