:020000040000FA
:02000000CA280C
:06000A008207403441347E
:10001000423443344434453446344734820715343B
:100020000A3415340A3415340A3415340A34820774
:10003000483449344A344B344C344D344E344F34C4
:1000400082071F3415341B341B341B341B34153406
:100050001F3482075034513452345334543455349D
:100060005634573482071B341B34113400340034A7
:100070001B3415341F348207583459345A345B34D6
:100080005C345D345E345F3482071F3415341B34B6
:1000900015340E3415341B341F3482076034613438
:1000A00062346334643465346634673482071F34E1
:1000B0001F340434043415340A34043404348207FD
:1000C000683469346A346B346C346D346E346F3434
:1000D00082071F341F340434043415340A340434C2
:1000E000003482077034713472347334743475346C
:1000F0007634773482070034043402341F341F34DA
:100100000234043400348207783479347A347B340E
:100110007C347D347E347F3482071B341B340034BE
:100120001B341B3400341B341B34831686018501B9
:10013000831205100511080085148316FF30860010
:10014000831205150000861BA3280511831686015E
:100150008312851008000515000005110800051020
:1001600086009C200514AB28051086009C20AB2837
:100170003830B420C1203830B420C1203830B42009
:10018000C12064000A308C008D018D0BC5288C0BBA
:10019000C528080083168601850183128B0105108E
:1001A0000511B8200C30B4200130B4208D010D08A9
:1001B0000520B4200D080E20AF200D081720B42014
:1001C0000D082020AF200D082920B4200D08322072
:1001D000AF200D083B20B4200D084420AF200D08AF
:1001E0004D20B4200D085620AF200D085F20B4200C
:1001F0000D086820AF200D087120B4200D087A206A
:10020000AF200D088320B4200D088C20AF208D0A6C
:1002100008300D06031DD728C430B4208D010D0809
:0E022000AF208D0A08300D06031D0F29162988
:02400E00F13F80
:00000001FF
