:020000040000FA
:02000000432893
:06000A008316860185014A
:10001000831205100511080085148316FF30860031
:10002000831205150000861B13280511831686010F
:100030008312851008000515000005110800051041
:1000400086000C2005141B200800051086000C20DB
:100050001B200800383025203A20383025203A204F
:10006000383025203A2008000130252008000C30C7
:10007000252008006400103090008F018F0B3E286F
:10008000900B3E28080005208316873081008312DC
:100090002A203420372080302520063025208E016C
:1000A000522051288C010E080C075E2000380319DD
:1000B00008001F208C0A0A308D005328820748341C
:0800C0004F344C34413400348C
:00000001FF
